{
  "_format": "hh-sol-artifact-1",
  "contractName": "Domain",
  "sourceName": "contracts/Domain.sol",
  "abi": [
    {
      "inputs": [
        {
          "internalType": "string",
          "name": "_tld",
          "type": "string"
        }
      ],
      "stateMutability": "payable",
      "type": "constructor"
    },
    {
      "inputs": [],
      "name": "AlreadyRegistered",
      "type": "error"
    },
    {
      "inputs": [
        {
          "internalType": "string",
          "name": "name",
          "type": "string"
        }
      ],
      "name": "InvalidName",
      "type": "error"
    },
    {
      "inputs": [],
      "name": "Unauthorized",
      "type": "error"
    },
    {
      "anonymous": false,
      "inputs": [
        {
          "indexed": true,
          "internalType": "address",
          "name": "owner",
          "type": "address"
        },
        {
          "indexed": true,
          "internalType": "address",
          "name": "approved",
          "type": "address"
        },
        {
          "indexed": true,
          "internalType": "uint256",
          "name": "tokenId",
          "type": "uint256"
        }
      ],
      "name": "Approval",
      "type": "event"
    },
    {
      "anonymous": false,
      "inputs": [
        {
          "indexed": true,
          "internalType": "address",
          "name": "owner",
          "type": "address"
        },
        {
          "indexed": true,
          "internalType": "address",
          "name": "operator",
          "type": "address"
        },
        {
          "indexed": false,
          "internalType": "bool",
          "name": "approved",
          "type": "bool"
        }
      ],
      "name": "ApprovalForAll",
      "type": "event"
    },
    {
      "anonymous": false,
      "inputs": [
        {
          "indexed": true,
          "internalType": "address",
          "name": "from",
          "type": "address"
        },
        {
          "indexed": true,
          "internalType": "address",
          "name": "to",
          "type": "address"
        },
        {
          "indexed": true,
          "internalType": "uint256",
          "name": "tokenId",
          "type": "uint256"
        }
      ],
      "name": "Transfer",
      "type": "event"
    },
    {
      "inputs": [
        {
          "internalType": "address",
          "name": "to",
          "type": "address"
        },
        {
          "internalType": "uint256",
          "name": "tokenId",
          "type": "uint256"
        }
      ],
      "name": "approve",
      "outputs": [],
      "stateMutability": "nonpayable",
      "type": "function"
    },
    {
      "inputs": [
        {
          "internalType": "address",
          "name": "owner",
          "type": "address"
        }
      ],
      "name": "balanceOf",
      "outputs": [
        {
          "internalType": "uint256",
          "name": "",
          "type": "uint256"
        }
      ],
      "stateMutability": "view",
      "type": "function"
    },
    {
      "inputs": [
        {
          "internalType": "string",
          "name": "",
          "type": "string"
        }
      ],
      "name": "domains",
      "outputs": [
        {
          "internalType": "address",
          "name": "",
          "type": "address"
        }
      ],
      "stateMutability": "view",
      "type": "function"
    },
    {
      "inputs": [],
      "name": "getAllNames",
      "outputs": [
        {
          "internalType": "string[]",
          "name": "",
          "type": "string[]"
        }
      ],
      "stateMutability": "view",
      "type": "function"
    },
    {
      "inputs": [
        {
          "internalType": "uint256",
          "name": "tokenId",
          "type": "uint256"
        }
      ],
      "name": "getApproved",
      "outputs": [
        {
          "internalType": "address",
          "name": "",
          "type": "address"
        }
      ],
      "stateMutability": "view",
      "type": "function"
    },
    {
      "inputs": [
        {
          "internalType": "string",
          "name": "name",
          "type": "string"
        }
      ],
      "name": "getDomainDetails",
      "outputs": [
        {
          "internalType": "address",
          "name": "",
          "type": "address"
        }
      ],
      "stateMutability": "view",
      "type": "function"
    },
    {
      "inputs": [
        {
          "internalType": "string",
          "name": "name",
          "type": "string"
        }
      ],
      "name": "getRecord",
      "outputs": [
        {
          "internalType": "string",
          "name": "",
          "type": "string"
        }
      ],
      "stateMutability": "view",
      "type": "function"
    },
    {
      "inputs": [
        {
          "internalType": "address",
          "name": "owner",
          "type": "address"
        },
        {
          "internalType": "address",
          "name": "operator",
          "type": "address"
        }
      ],
      "name": "isApprovedForAll",
      "outputs": [
        {
          "internalType": "bool",
          "name": "",
          "type": "bool"
        }
      ],
      "stateMutability": "view",
      "type": "function"
    },
    {
      "inputs": [],
      "name": "isOwner",
      "outputs": [
        {
          "internalType": "bool",
          "name": "",
          "type": "bool"
        }
      ],
      "stateMutability": "view",
      "type": "function"
    },
    {
      "inputs": [
        {
          "internalType": "string",
          "name": "name",
          "type": "string"
        }
      ],
      "name": "mintDomain",
      "outputs": [],
      "stateMutability": "nonpayable",
      "type": "function"
    },
    {
      "inputs": [],
      "name": "name",
      "outputs": [
        {
          "internalType": "string",
          "name": "",
          "type": "string"
        }
      ],
      "stateMutability": "view",
      "type": "function"
    },
    {
      "inputs": [
        {
          "internalType": "uint256",
          "name": "",
          "type": "uint256"
        }
      ],
      "name": "names",
      "outputs": [
        {
          "internalType": "string",
          "name": "",
          "type": "string"
        }
      ],
      "stateMutability": "view",
      "type": "function"
    },
    {
      "inputs": [],
      "name": "owner",
      "outputs": [
        {
          "internalType": "address payable",
          "name": "",
          "type": "address"
        }
      ],
      "stateMutability": "view",
      "type": "function"
    },
    {
      "inputs": [
        {
          "internalType": "uint256",
          "name": "tokenId",
          "type": "uint256"
        }
      ],
      "name": "ownerOf",
      "outputs": [
        {
          "internalType": "address",
          "name": "",
          "type": "address"
        }
      ],
      "stateMutability": "view",
      "type": "function"
    },
    {
      "inputs": [
        {
          "internalType": "string",
          "name": "name",
          "type": "string"
        }
      ],
      "name": "price",
      "outputs": [
        {
          "internalType": "uint256",
          "name": "",
          "type": "uint256"
        }
      ],
      "stateMutability": "pure",
      "type": "function"
    },
    {
      "inputs": [
        {
          "internalType": "string",
          "name": "",
          "type": "string"
        }
      ],
      "name": "records",
      "outputs": [
        {
          "internalType": "string",
          "name": "",
          "type": "string"
        }
      ],
      "stateMutability": "view",
      "type": "function"
    },
    {
      "inputs": [
        {
          "internalType": "string",
          "name": "name",
          "type": "string"
        }
      ],
      "name": "register",
      "outputs": [],
      "stateMutability": "payable",
      "type": "function"
    },
    {
      "inputs": [
        {
          "internalType": "address",
          "name": "from",
          "type": "address"
        },
        {
          "internalType": "address",
          "name": "to",
          "type": "address"
        },
        {
          "internalType": "uint256",
          "name": "tokenId",
          "type": "uint256"
        }
      ],
      "name": "safeTransferFrom",
      "outputs": [],
      "stateMutability": "nonpayable",
      "type": "function"
    },
    {
      "inputs": [
        {
          "internalType": "address",
          "name": "from",
          "type": "address"
        },
        {
          "internalType": "address",
          "name": "to",
          "type": "address"
        },
        {
          "internalType": "uint256",
          "name": "tokenId",
          "type": "uint256"
        },
        {
          "internalType": "bytes",
          "name": "data",
          "type": "bytes"
        }
      ],
      "name": "safeTransferFrom",
      "outputs": [],
      "stateMutability": "nonpayable",
      "type": "function"
    },
    {
      "inputs": [
        {
          "internalType": "address",
          "name": "operator",
          "type": "address"
        },
        {
          "internalType": "bool",
          "name": "approved",
          "type": "bool"
        }
      ],
      "name": "setApprovalForAll",
      "outputs": [],
      "stateMutability": "nonpayable",
      "type": "function"
    },
    {
      "inputs": [
        {
          "internalType": "string",
          "name": "name",
          "type": "string"
        },
        {
          "internalType": "string",
          "name": "record",
          "type": "string"
        }
      ],
      "name": "setRecord",
      "outputs": [],
      "stateMutability": "nonpayable",
      "type": "function"
    },
    {
      "inputs": [
        {
          "internalType": "bytes4",
          "name": "interfaceId",
          "type": "bytes4"
        }
      ],
      "name": "supportsInterface",
      "outputs": [
        {
          "internalType": "bool",
          "name": "",
          "type": "bool"
        }
      ],
      "stateMutability": "view",
      "type": "function"
    },
    {
      "inputs": [],
      "name": "symbol",
      "outputs": [
        {
          "internalType": "string",
          "name": "",
          "type": "string"
        }
      ],
      "stateMutability": "view",
      "type": "function"
    },
    {
      "inputs": [],
      "name": "tld",
      "outputs": [
        {
          "internalType": "string",
          "name": "",
          "type": "string"
        }
      ],
      "stateMutability": "view",
      "type": "function"
    },
    {
      "inputs": [
        {
          "internalType": "uint256",
          "name": "tokenId",
          "type": "uint256"
        }
      ],
      "name": "tokenURI",
      "outputs": [
        {
          "internalType": "string",
          "name": "",
          "type": "string"
        }
      ],
      "stateMutability": "view",
      "type": "function"
    },
    {
      "inputs": [
        {
          "internalType": "address",
          "name": "from",
          "type": "address"
        },
        {
          "internalType": "address",
          "name": "to",
          "type": "address"
        },
        {
          "internalType": "uint256",
          "name": "tokenId",
          "type": "uint256"
        }
      ],
      "name": "transferFrom",
      "outputs": [],
      "stateMutability": "nonpayable",
      "type": "function"
    },
    {
      "inputs": [
        {
          "internalType": "string",
          "name": "name",
          "type": "string"
        }
      ],
      "name": "valid",
      "outputs": [
        {
          "internalType": "bool",
          "name": "",
          "type": "bool"
        }
      ],
      "stateMutability": "pure",
      "type": "function"
    },
    {
      "inputs": [],
      "name": "withdraw",
      "outputs": [],
      "stateMutability": "nonpayable",
      "type": "function"
    }
  ],
  "bytecode": "0x6080604052604051806108a0016040528061086b81526020016200530761086b9139600a908051906020019062000038929190620002c8565b506040518060400160405280600d81526020017f3c2f746578743e3c2f7376673e00000000000000000000000000000000000000815250600b908051906020019062000086929190620002c8565b5060405162005b7238038062005b728339818101604052810190620000ac919062000515565b6040518060400160405280601281526020017f2e74656368204e616d65205365727669636500000000000000000000000000008152506040518060400160405280600381526020017f544e530000000000000000000000000000000000000000000000000000000000815250816000908051906020019062000130929190620002c8565b50806001908051906020019062000149929190620002c8565b50505033600860006101000a81548173ffffffffffffffffffffffffffffffffffffffff021916908373ffffffffffffffffffffffffffffffffffffffff1602179055508060099080519060200190620001a5929190620002c8565b50620001f26040518060400160405280601f81526020017f2573204e616d65205365727669636520536d61727420436f6e7472616374210081525082620001f960201b62001d491760201c565b5062000663565b6200029b828260405160240162000212929190620005c3565b6040516020818303038152906040527f4b5c4277000000000000000000000000000000000000000000000000000000007bffffffffffffffffffffffffffffffffffffffffffffffffffffffff19166020820180517bffffffffffffffffffffffffffffffffffffffffffffffffffffffff83818316178352505050506200029f60201b60201c565b5050565b60008151905060006a636f6e736f6c652e6c6f679050602083016000808483855afa5050505050565b828054620002d6906200062d565b90600052602060002090601f016020900481019282620002fa576000855562000346565b82601f106200031557805160ff191683800117855562000346565b8280016001018555821562000346579182015b828111156200034557825182559160200191906001019062000328565b5b50905062000355919062000359565b5090565b5b80821115620003745760008160009055506001016200035a565b5090565b6000604051905090565b600080fd5b600080fd5b600080fd5b600080fd5b6000601f19601f8301169050919050565b7f4e487b7100000000000000000000000000000000000000000000000000000000600052604160045260246000fd5b620003e18262000396565b810181811067ffffffffffffffff82111715620004035762000402620003a7565b5b80604052505050565b60006200041862000378565b9050620004268282620003d6565b919050565b600067ffffffffffffffff821115620004495762000448620003a7565b5b620004548262000396565b9050602081019050919050565b60005b838110156200048157808201518184015260208101905062000464565b8381111562000491576000848401525b50505050565b6000620004ae620004a8846200042b565b6200040c565b905082815260208101848484011115620004cd57620004cc62000391565b5b620004da84828562000461565b509392505050565b600082601f830112620004fa57620004f96200038c565b5b81516200050c84826020860162000497565b91505092915050565b6000602082840312156200052e576200052d62000382565b5b600082015167ffffffffffffffff8111156200054f576200054e62000387565b5b6200055d84828501620004e2565b91505092915050565b600081519050919050565b600082825260208201905092915050565b60006200058f8262000566565b6200059b818562000571565b9350620005ad81856020860162000461565b620005b88162000396565b840191505092915050565b60006040820190508181036000830152620005df818562000582565b90508181036020830152620005f5818462000582565b90509392505050565b7f4e487b7100000000000000000000000000000000000000000000000000000000600052602260045260246000fd5b600060028204905060018216806200064657607f821691505b602082108114156200065d576200065c620005fe565b5b50919050565b614c9480620006736000396000f3fe6080604052600436106101b75760003560e01c80638da5cb5b116100ec578063c319a11f1161008a578063e985e9c511610064578063e985e9c514610668578063f2c298be146106a5578063fb825e5f146106c1578063fe2c6198146106ec576101b7565b8063c319a11f146105c5578063c38fb836146105ee578063c87b56dd1461062b576101b7565b80639791c097116100c65780639791c0971461050d578063a22cb4651461054a578063b88d4fde14610573578063c1880a981461059c576101b7565b80638da5cb5b1461048c5780638f32d59b146104b757806395d89b41146104e2576101b7565b80632d551432116101595780634622ab03116101335780634622ab0314610398578063541e771d146103d55780636352211e1461041257806370a082311461044f576101b7565b80632d5514321461032d5780633ccfd60b1461035857806342842e0e1461036f576101b7565b8063095ea7b311610195578063095ea7b31461026157806311dd88451461028a57806323b872dd146102c757806326449235146102f0576101b7565b806301ffc9a7146101bc57806306fdde03146101f9578063081812fc14610224575b600080fd5b3480156101c857600080fd5b506101e360048036038101906101de919061329f565b610729565b6040516101f091906132e7565b60405180910390f35b34801561020557600080fd5b5061020e61080b565b60405161021b919061339b565b60405180910390f35b34801561023057600080fd5b5061024b600480360381019061024691906133f3565b61089d565b6040516102589190613461565b60405180910390f35b34801561026d57600080fd5b50610288600480360381019061028391906134a8565b6108e3565b005b34801561029657600080fd5b506102b160048036038101906102ac919061354d565b6109fb565b6040516102be919061339b565b60405180910390f35b3480156102d357600080fd5b506102ee60048036038101906102e9919061359a565b610aae565b005b3480156102fc57600080fd5b506103176004803603810190610312919061371d565b610b0e565b6040516103249190613461565b60405180910390f35b34801561033957600080fd5b50610342610b57565b60405161034f919061339b565b60405180910390f35b34801561036457600080fd5b5061036d610be5565b005b34801561037b57600080fd5b506103966004803603810190610391919061359a565b610cab565b005b3480156103a457600080fd5b506103bf60048036038101906103ba91906133f3565b610ccb565b6040516103cc919061339b565b60405180910390f35b3480156103e157600080fd5b506103fc60048036038101906103f7919061371d565b610d6b565b604051610409919061339b565b60405180910390f35b34801561041e57600080fd5b50610439600480360381019061043491906133f3565b610e21565b6040516104469190613461565b60405180910390f35b34801561045b57600080fd5b5061047660048036038101906104719190613766565b610ed3565b60405161048391906137a2565b60405180910390f35b34801561049857600080fd5b506104a1610f8b565b6040516104ae91906137de565b60405180910390f35b3480156104c357600080fd5b506104cc610fb1565b6040516104d991906132e7565b60405180910390f35b3480156104ee57600080fd5b506104f7611009565b604051610504919061339b565b60405180910390f35b34801561051957600080fd5b50610534600480360381019061052f919061354d565b61109b565b60405161054191906132e7565b60405180910390f35b34801561055657600080fd5b50610571600480360381019061056c9190613825565b61114f565b005b34801561057f57600080fd5b5061059a60048036038101906105959190613906565b611165565b005b3480156105a857600080fd5b506105c360048036038101906105be9190613989565b6111c7565b005b3480156105d157600080fd5b506105ec60048036038101906105e7919061354d565b61131a565b005b3480156105fa57600080fd5b506106156004803603810190610610919061354d565b61145d565b6040516106229190613461565b60405180910390f35b34801561063757600080fd5b50610652600480360381019061064d91906133f3565b6114a8565b60405161065f919061339b565b60405180910390f35b34801561067457600080fd5b5061068f600480360381019061068a9190613a0a565b6115bb565b60405161069c91906132e7565b60405180910390f35b6106bf60048036038101906106ba919061354d565b61164f565b005b3480156106cd57600080fd5b506106d6611ac5565b6040516106e39190613b56565b60405180910390f35b3480156106f857600080fd5b50610713600480360381019061070e919061354d565b611ca3565b60405161072091906137a2565b60405180910390f35b60007f80ac58cd000000000000000000000000000000000000000000000000000000007bffffffffffffffffffffffffffffffffffffffffffffffffffffffff1916827bffffffffffffffffffffffffffffffffffffffffffffffffffffffff191614806107f457507f5b5e139f000000000000000000000000000000000000000000000000000000007bffffffffffffffffffffffffffffffffffffffffffffffffffffffff1916827bffffffffffffffffffffffffffffffffffffffffffffffffffffffff1916145b80610804575061080382611de5565b5b9050919050565b60606000805461081a90613ba7565b80601f016020809104026020016040519081016040528092919081815260200182805461084690613ba7565b80156108935780601f1061086857610100808354040283529160200191610893565b820191906000526020600020905b81548152906001019060200180831161087657829003601f168201915b5050505050905090565b60006108a882611e4f565b6004600083815260200190815260200160002060009054906101000a900473ffffffffffffffffffffffffffffffffffffffff169050919050565b60006108ee82610e21565b90508073ffffffffffffffffffffffffffffffffffffffff168373ffffffffffffffffffffffffffffffffffffffff16141561095f576040517f08c379a000000000000000000000000000000000000000000000000000000000815260040161095690613c4b565b60405180910390fd5b8073ffffffffffffffffffffffffffffffffffffffff1661097e611e9a565b73ffffffffffffffffffffffffffffffffffffffff1614806109ad57506109ac816109a7611e9a565b6115bb565b5b6109ec576040517f08c379a00000000000000000000000000000000000000000000000000000000081526004016109e390613cdd565b60405180910390fd5b6109f68383611ea2565b505050565b6060600d8383604051610a0f929190613d2d565b90815260200160405180910390208054610a2890613ba7565b80601f0160208091040260200160405190810160405280929190818152602001828054610a5490613ba7565b8015610aa15780601f10610a7657610100808354040283529160200191610aa1565b820191906000526020600020905b815481529060010190602001808311610a8457829003601f168201915b5050505050905092915050565b610abf610ab9611e9a565b82611f5b565b610afe576040517f08c379a0000000000000000000000000000000000000000000000000000000008152600401610af590613db8565b60405180910390fd5b610b09838383611ff0565b505050565b600c818051602081018201805184825260208301602085012081835280955050505050506000915054906101000a900473ffffffffffffffffffffffffffffffffffffffff1681565b60098054610b6490613ba7565b80601f0160208091040260200160405190810160405280929190818152602001828054610b9090613ba7565b8015610bdd5780601f10610bb257610100808354040283529160200191610bdd565b820191906000526020600020905b815481529060010190602001808311610bc057829003601f168201915b505050505081565b610bed610fb1565b610bf657600080fd5b600047905060003373ffffffffffffffffffffffffffffffffffffffff1682604051610c2190613e09565b60006040518083038185875af1925050503d8060008114610c5e576040519150601f19603f3d011682016040523d82523d6000602084013e610c63565b606091505b5050905080610ca7576040517f08c379a0000000000000000000000000000000000000000000000000000000008152600401610c9e90613e6a565b60405180910390fd5b5050565b610cc683838360405180602001604052806000815250611165565b505050565b600e6020528060005260406000206000915090508054610cea90613ba7565b80601f0160208091040260200160405190810160405280929190818152602001828054610d1690613ba7565b8015610d635780601f10610d3857610100808354040283529160200191610d63565b820191906000526020600020905b815481529060010190602001808311610d4657829003601f168201915b505050505081565b600d818051602081018201805184825260208301602085012081835280955050505050506000915090508054610da090613ba7565b80601f0160208091040260200160405190810160405280929190818152602001828054610dcc90613ba7565b8015610e195780601f10610dee57610100808354040283529160200191610e19565b820191906000526020600020905b815481529060010190602001808311610dfc57829003601f168201915b505050505081565b6000806002600084815260200190815260200160002060009054906101000a900473ffffffffffffffffffffffffffffffffffffffff169050600073ffffffffffffffffffffffffffffffffffffffff168173ffffffffffffffffffffffffffffffffffffffff161415610eca576040517f08c379a0000000000000000000000000000000000000000000000000000000008152600401610ec190613ed6565b60405180910390fd5b80915050919050565b60008073ffffffffffffffffffffffffffffffffffffffff168273ffffffffffffffffffffffffffffffffffffffff161415610f44576040517f08c379a0000000000000000000000000000000000000000000000000000000008152600401610f3b90613f68565b60405180910390fd5b600360008373ffffffffffffffffffffffffffffffffffffffff1673ffffffffffffffffffffffffffffffffffffffff168152602001908152602001600020549050919050565b600860009054906101000a900473ffffffffffffffffffffffffffffffffffffffff1681565b6000600860009054906101000a900473ffffffffffffffffffffffffffffffffffffffff1673ffffffffffffffffffffffffffffffffffffffff163373ffffffffffffffffffffffffffffffffffffffff1614905090565b60606001805461101890613ba7565b80601f016020809104026020016040519081016040528092919081815260200182805461104490613ba7565b80156110915780601f1061106657610100808354040283529160200191611091565b820191906000526020600020905b81548152906001019060200180831161107457829003601f168201915b5050505050905090565b600060036110ec84848080601f016020809104026020016040519081016040528093929190818152602001838380828437600081840152601f19601f82011690508083019250505050505050612257565b101580156111475750600a61114484848080601f016020809104026020016040519081016040528093929190818152602001838380828437600081840152601f19601f82011690508083019250505050505050612257565b11155b905092915050565b61116161115a611e9a565b838361240c565b5050565b611176611170611e9a565b83611f5b565b6111b5576040517f08c379a00000000000000000000000000000000000000000000000000000000081526004016111ac90613db8565b60405180910390fd5b6111c184848484612579565b50505050565b600c84846040516111d9929190613d2d565b908152602001604051809103902060009054906101000a900473ffffffffffffffffffffffffffffffffffffffff1673ffffffffffffffffffffffffffffffffffffffff163373ffffffffffffffffffffffffffffffffffffffff161461126c576040517f82b4290000000000000000000000000000000000000000000000000000000000815260040160405180910390fd5b3373ffffffffffffffffffffffffffffffffffffffff16600c8585604051611295929190613d2d565b908152602001604051809103902060009054906101000a900473ffffffffffffffffffffffffffffffffffffffff1673ffffffffffffffffffffffffffffffffffffffff16146112e457600080fd5b8181600d86866040516112f8929190613d2d565b9081526020016040518091039020919061131392919061310a565b5050505050565b600073ffffffffffffffffffffffffffffffffffffffff16600c8383604051611344929190613d2d565b908152602001604051809103902060009054906101000a900473ffffffffffffffffffffffffffffffffffffffff1673ffffffffffffffffffffffffffffffffffffffff161461139357600080fd5b33600c83836040516113a6929190613d2d565b908152602001604051809103902060006101000a81548173ffffffffffffffffffffffffffffffffffffffff021916908373ffffffffffffffffffffffffffffffffffffffff160217905550611459604051806060016040528060248152602001614bca602491393384848080601f016020809104026020016040519081016040528093929190818152602001838380828437600081840152601f19601f820116905080830192505050505050506125d5565b5050565b6000600c8383604051611471929190613d2d565b908152602001604051809103902060009054906101000a900473ffffffffffffffffffffffffffffffffffffffff16905092915050565b60606114b382611e4f565b60006006600084815260200190815260200160002080546114d390613ba7565b80601f01602080910402602001604051908101604052809291908181526020018280546114ff90613ba7565b801561154c5780601f106115215761010080835404028352916020019161154c565b820191906000526020600020905b81548152906001019060200180831161152f57829003601f168201915b50505050509050600061155d612674565b90506000815114156115735781925050506115b6565b6000825111156115a8578082604051602001611590929190613fb9565b604051602081830303815290604052925050506115b6565b6115b18461268b565b925050505b919050565b6000600560008473ffffffffffffffffffffffffffffffffffffffff1673ffffffffffffffffffffffffffffffffffffffff16815260200190815260200160002060008373ffffffffffffffffffffffffffffffffffffffff1673ffffffffffffffffffffffffffffffffffffffff16815260200190815260200160002060009054906101000a900460ff16905092915050565b600073ffffffffffffffffffffffffffffffffffffffff16600c8383604051611679929190613d2d565b908152602001604051809103902060009054906101000a900473ffffffffffffffffffffffffffffffffffffffff1673ffffffffffffffffffffffffffffffffffffffff16146116c857600080fd5b600073ffffffffffffffffffffffffffffffffffffffff16600c83836040516116f2929190613d2d565b908152602001604051809103902060009054906101000a900473ffffffffffffffffffffffffffffffffffffffff1673ffffffffffffffffffffffffffffffffffffffff161461176e576040517f3a81d6fc00000000000000000000000000000000000000000000000000000000815260040160405180910390fd5b611778828261109b565b6117bb5781816040517f7f19f48d0000000000000000000000000000000000000000000000000000000081526004016117b292919061400a565b60405180910390fd5b60006117c78383611ca3565b90508034101561180c576040517f08c379a00000000000000000000000000000000000000000000000000000000081526004016118039061407a565b60405180910390fd5b6000838360096040516020016118249392919061417a565b60405160208183030381529060405290506000600a82600b60405160200161184e939291906141ab565b6040516020818303038152906040529050600061186b60076126f3565b905060006118bc87878080601f016020809104026020016040519081016040528093929190818152602001838380828437600081840152601f19601f82011690508083019250505050505050612257565b905060006118c982612701565b90506119bd604051806060016040528060318152602001614bee6031913989898080601f016020809104026020016040519081016040528093929190818152602001838380828437600081840152601f19601f820116905080830192505050505050506009805461193990613ba7565b80601f016020809104026020016040519081016040528092919081815260200182805461196590613ba7565b80156119b25780601f10611987576101008083540402835291602001916119b2565b820191906000526020600020905b81548152906001019060200180831161199557829003601f168201915b505050505086612862565b60006119f3866119cc87612904565b846040516020016119df93929190614358565b604051602081830303815290604052612904565b9050600081604051602001611a089190614401565b6040516020818303038152906040529050611a233386612a9c565b611a2d8582612aba565b33600c8b8b604051611a40929190613d2d565b908152602001604051809103902060006101000a81548173ffffffffffffffffffffffffffffffffffffffff021916908373ffffffffffffffffffffffffffffffffffffffff1602179055508989600e60008881526020019081526020016000209190611aae92919061310a565b50611ab96007612b2e565b50505050505050505050565b6060611b056040518060400160405280601f81526020017f47657474696e6720616c6c206e616d65732066726f6d20636f6e747261637400815250612b44565b6000611b1160076126f3565b67ffffffffffffffff811115611b2a57611b296135f2565b5b604051908082528060200260200182016040528015611b5d57816020015b6060815260200190600190039081611b485790505b50905060005b611b6d60076126f3565b811015611c9b57600e60008281526020019081526020016000208054611b9290613ba7565b80601f0160208091040260200160405190810160405280929190818152602001828054611bbe90613ba7565b8015611c0b5780601f10611be057610100808354040283529160200191611c0b565b820191906000526020600020905b815481529060010190602001808311611bee57829003601f168201915b5050505050828281518110611c2357611c22614423565b5b6020026020010181905250611c886040518060400160405280601781526020017f4e616d6520666f7220746f6b656e20256420697320257300000000000000000081525082848481518110611c7b57611c7a614423565b5b6020026020010151612bdd565b8080611c9390614481565b915050611b63565b508091505090565b600080611cf384848080601f016020809104026020016040519081016040528093929190818152602001838380828437600081840152601f19601f82011690508083019250505050505050612257565b905060008111611d0257600080fd5b6003811415611d1c576706f05b59d3b20000915050611d43565b6004811415611d3657670429d069189e0000915050611d43565b67016345785d8a00009150505b92915050565b611de18282604051602401611d5f9291906144ca565b6040516020818303038152906040527f4b5c4277000000000000000000000000000000000000000000000000000000007bffffffffffffffffffffffffffffffffffffffffffffffffffffffff19166020820180517bffffffffffffffffffffffffffffffffffffffffffffffffffffffff8381831617835250505050612c7c565b5050565b60007f01ffc9a7000000000000000000000000000000000000000000000000000000007bffffffffffffffffffffffffffffffffffffffffffffffffffffffff1916827bffffffffffffffffffffffffffffffffffffffffffffffffffffffff1916149050919050565b611e5881612ca5565b611e97576040517f08c379a0000000000000000000000000000000000000000000000000000000008152600401611e8e90613ed6565b60405180910390fd5b50565b600033905090565b816004600083815260200190815260200160002060006101000a81548173ffffffffffffffffffffffffffffffffffffffff021916908373ffffffffffffffffffffffffffffffffffffffff160217905550808273ffffffffffffffffffffffffffffffffffffffff16611f1583610e21565b73ffffffffffffffffffffffffffffffffffffffff167f8c5be1e5ebec7d5bd14f71427d1e84f3dd0314c0f7b2291e5b200ac8c7c3b92560405160405180910390a45050565b600080611f6783610e21565b90508073ffffffffffffffffffffffffffffffffffffffff168473ffffffffffffffffffffffffffffffffffffffff161480611fa95750611fa881856115bb565b5b80611fe757508373ffffffffffffffffffffffffffffffffffffffff16611fcf8461089d565b73ffffffffffffffffffffffffffffffffffffffff16145b91505092915050565b8273ffffffffffffffffffffffffffffffffffffffff1661201082610e21565b73ffffffffffffffffffffffffffffffffffffffff1614612066576040517f08c379a000000000000000000000000000000000000000000000000000000000815260040161205d90614573565b60405180910390fd5b600073ffffffffffffffffffffffffffffffffffffffff168273ffffffffffffffffffffffffffffffffffffffff1614156120d6576040517f08c379a00000000000000000000000000000000000000000000000000000000081526004016120cd90614605565b60405180910390fd5b6120e1838383612d11565b6120ec600082611ea2565b6001600360008573ffffffffffffffffffffffffffffffffffffffff1673ffffffffffffffffffffffffffffffffffffffff168152602001908152602001600020600082825461213c9190614625565b925050819055506001600360008473ffffffffffffffffffffffffffffffffffffffff1673ffffffffffffffffffffffffffffffffffffffff16815260200190815260200160002060008282546121939190614659565b92505081905550816002600083815260200190815260200160002060006101000a81548173ffffffffffffffffffffffffffffffffffffffff021916908373ffffffffffffffffffffffffffffffffffffffff160217905550808273ffffffffffffffffffffffffffffffffffffffff168473ffffffffffffffffffffffffffffffffffffffff167fddf252ad1be2c89b69c2b068fc378daa952ba7f163c4a11628f55a4df523b3ef60405160405180910390a4612252838383612d16565b505050565b60008060008084519050600092505b8082101561240157600085838151811061228357612282614423565b5b602001015160f81c60f81b9050608060f81b817effffffffffffffffffffffffffffffffffffffffffffffffffffffffffffff191610156122d2576001836122cb9190614659565b92506123ed565b60e060f81b817effffffffffffffffffffffffffffffffffffffffffffffffffffffffffffff191610156123145760028361230d9190614659565b92506123ec565b60f060f81b817effffffffffffffffffffffffffffffffffffffffffffffffffffffffffffff191610156123565760038361234f9190614659565b92506123eb565b60f8801b817effffffffffffffffffffffffffffffffffffffffffffffffffffffffffffff19161015612397576004836123909190614659565b92506123ea565b60fc60f81b817effffffffffffffffffffffffffffffffffffffffffffffffffffffffffffff191610156123d9576005836123d29190614659565b92506123e9565b6006836123e69190614659565b92505b5b5b5b5b5082806123f990614481565b935050612266565b829350505050919050565b8173ffffffffffffffffffffffffffffffffffffffff168373ffffffffffffffffffffffffffffffffffffffff16141561247b576040517f08c379a0000000000000000000000000000000000000000000000000000000008152600401612472906146fb565b60405180910390fd5b80600560008573ffffffffffffffffffffffffffffffffffffffff1673ffffffffffffffffffffffffffffffffffffffff16815260200190815260200160002060008473ffffffffffffffffffffffffffffffffffffffff1673ffffffffffffffffffffffffffffffffffffffff16815260200190815260200160002060006101000a81548160ff0219169083151502179055508173ffffffffffffffffffffffffffffffffffffffff168373ffffffffffffffffffffffffffffffffffffffff167f17307eab39ab6107e8899845ad3d59bd9653f200f220920489ca2b5937696c318360405161256c91906132e7565b60405180910390a3505050565b612584848484611ff0565b61259084848484612d1b565b6125cf576040517f08c379a00000000000000000000000000000000000000000000000000000000081526004016125c69061478d565b60405180910390fd5b50505050565b61266f8383836040516024016125ed939291906147ad565b6040516020818303038152906040527fe0e9ad4f000000000000000000000000000000000000000000000000000000007bffffffffffffffffffffffffffffffffffffffffffffffffffffffff19166020820180517bffffffffffffffffffffffffffffffffffffffffffffffffffffffff8381831617835250505050612c7c565b505050565b606060405180602001604052806000815250905090565b606061269682611e4f565b60006126a0612674565b905060008151116126c057604051806020016040528060008152506126eb565b806126ca84612701565b6040516020016126db929190613fb9565b6040516020818303038152906040525b915050919050565b600081600001549050919050565b60606000821415612749576040518060400160405280600181526020017f3000000000000000000000000000000000000000000000000000000000000000815250905061285d565b600082905060005b6000821461277b57808061276490614481565b915050600a826127749190614821565b9150612751565b60008167ffffffffffffffff811115612797576127966135f2565b5b6040519080825280601f01601f1916602001820160405280156127c95781602001600182028036833780820191505090505b5090505b60008514612856576001826127e29190614625565b9150600a856127f19190614852565b60306127fd9190614659565b60f81b81838151811061281357612812614423565b5b60200101907effffffffffffffffffffffffffffffffffffffffffffffffffffffffffffff1916908160001a905350600a8561284f9190614821565b94506127cd565b8093505050505b919050565b6128fe8484848460405160240161287c9493929190614883565b6040516020818303038152906040527f9fd009f5000000000000000000000000000000000000000000000000000000007bffffffffffffffffffffffffffffffffffffffffffffffffffffffff19166020820180517bffffffffffffffffffffffffffffffffffffffffffffffffffffffff8381831617835250505050612c7c565b50505050565b6060600082519050600081141561292d5760405180602001604052806000815250915050612a97565b6000600360028361293e9190614659565b6129489190614821565b600461295491906148dd565b905060006020826129659190614659565b67ffffffffffffffff81111561297e5761297d6135f2565b5b6040519080825280601f01601f1916602001820160405280156129b05781602001600182028036833780820191505090505b5090506000604051806060016040528060408152602001614c1f604091399050600181016020830160005b86811015612a545760038101905062ffffff818a015116603f8160121c168401518060081b905060ff603f83600c1c1686015116810190508060081b905060ff603f8360061c1686015116810190508060081b905060ff603f831686015116810190508060e01b905080845260048401935050506129db565b506003860660018114612a6e5760028114612a7e57612a89565b613d3d60f01b6002830352612a89565b603d60f81b60018303525b508484525050819450505050505b919050565b612ab6828260405180602001604052806000815250612eb2565b5050565b612ac382612ca5565b612b02576040517f08c379a0000000000000000000000000000000000000000000000000000000008152600401612af9906149a9565b60405180910390fd5b80600660008481526020019081526020016000209080519060200190612b29929190613190565b505050565b6001816000016000828254019250508190555050565b612bda81604051602401612b58919061339b565b6040516020818303038152906040527f41304fac000000000000000000000000000000000000000000000000000000007bffffffffffffffffffffffffffffffffffffffffffffffffffffffff19166020820180517bffffffffffffffffffffffffffffffffffffffffffffffffffffffff8381831617835250505050612c7c565b50565b612c77838383604051602401612bf5939291906149c9565b6040516020818303038152906040527fa3f5c739000000000000000000000000000000000000000000000000000000007bffffffffffffffffffffffffffffffffffffffffffffffffffffffff19166020820180517bffffffffffffffffffffffffffffffffffffffffffffffffffffffff8381831617835250505050612c7c565b505050565b60008151905060006a636f6e736f6c652e6c6f679050602083016000808483855afa5050505050565b60008073ffffffffffffffffffffffffffffffffffffffff166002600084815260200190815260200160002060009054906101000a900473ffffffffffffffffffffffffffffffffffffffff1673ffffffffffffffffffffffffffffffffffffffff1614159050919050565b505050565b505050565b6000612d3c8473ffffffffffffffffffffffffffffffffffffffff16612f0d565b15612ea5578373ffffffffffffffffffffffffffffffffffffffff1663150b7a02612d65611e9a565b8786866040518563ffffffff1660e01b8152600401612d879493929190614a63565b602060405180830381600087803b158015612da157600080fd5b505af1925050508015612dd257506040513d601f19601f82011682018060405250810190612dcf9190614ac4565b60015b612e55573d8060008114612e02576040519150601f19603f3d011682016040523d82523d6000602084013e612e07565b606091505b50600081511415612e4d576040517f08c379a0000000000000000000000000000000000000000000000000000000008152600401612e449061478d565b60405180910390fd5b805181602001fd5b63150b7a0260e01b7bffffffffffffffffffffffffffffffffffffffffffffffffffffffff1916817bffffffffffffffffffffffffffffffffffffffffffffffffffffffff191614915050612eaa565b600190505b949350505050565b612ebc8383612f30565b612ec96000848484612d1b565b612f08576040517f08c379a0000000000000000000000000000000000000000000000000000000008152600401612eff9061478d565b60405180910390fd5b505050565b6000808273ffffffffffffffffffffffffffffffffffffffff163b119050919050565b600073ffffffffffffffffffffffffffffffffffffffff168273ffffffffffffffffffffffffffffffffffffffff161415612fa0576040517f08c379a0000000000000000000000000000000000000000000000000000000008152600401612f9790614b3d565b60405180910390fd5b612fa981612ca5565b15612fe9576040517f08c379a0000000000000000000000000000000000000000000000000000000008152600401612fe090614ba9565b60405180910390fd5b612ff560008383612d11565b6001600360008473ffffffffffffffffffffffffffffffffffffffff1673ffffffffffffffffffffffffffffffffffffffff16815260200190815260200160002060008282546130459190614659565b92505081905550816002600083815260200190815260200160002060006101000a81548173ffffffffffffffffffffffffffffffffffffffff021916908373ffffffffffffffffffffffffffffffffffffffff160217905550808273ffffffffffffffffffffffffffffffffffffffff16600073ffffffffffffffffffffffffffffffffffffffff167fddf252ad1be2c89b69c2b068fc378daa952ba7f163c4a11628f55a4df523b3ef60405160405180910390a461310660008383612d16565b5050565b82805461311690613ba7565b90600052602060002090601f016020900481019282613138576000855561317f565b82601f1061315157803560ff191683800117855561317f565b8280016001018555821561317f579182015b8281111561317e578235825591602001919060010190613163565b5b50905061318c9190613216565b5090565b82805461319c90613ba7565b90600052602060002090601f0160209004810192826131be5760008555613205565b82601f106131d757805160ff1916838001178555613205565b82800160010185558215613205579182015b828111156132045782518255916020019190600101906131e9565b5b5090506132129190613216565b5090565b5b8082111561322f576000816000905550600101613217565b5090565b6000604051905090565b600080fd5b600080fd5b60007fffffffff0000000000000000000000000000000000000000000000000000000082169050919050565b61327c81613247565b811461328757600080fd5b50565b60008135905061329981613273565b92915050565b6000602082840312156132b5576132b461323d565b5b60006132c38482850161328a565b91505092915050565b60008115159050919050565b6132e1816132cc565b82525050565b60006020820190506132fc60008301846132d8565b92915050565b600081519050919050565b600082825260208201905092915050565b60005b8381101561333c578082015181840152602081019050613321565b8381111561334b576000848401525b50505050565b6000601f19601f8301169050919050565b600061336d82613302565b613377818561330d565b935061338781856020860161331e565b61339081613351565b840191505092915050565b600060208201905081810360008301526133b58184613362565b905092915050565b6000819050919050565b6133d0816133bd565b81146133db57600080fd5b50565b6000813590506133ed816133c7565b92915050565b6000602082840312156134095761340861323d565b5b6000613417848285016133de565b91505092915050565b600073ffffffffffffffffffffffffffffffffffffffff82169050919050565b600061344b82613420565b9050919050565b61345b81613440565b82525050565b60006020820190506134766000830184613452565b92915050565b61348581613440565b811461349057600080fd5b50565b6000813590506134a28161347c565b92915050565b600080604083850312156134bf576134be61323d565b5b60006134cd85828601613493565b92505060206134de858286016133de565b9150509250929050565b600080fd5b600080fd5b600080fd5b60008083601f84011261350d5761350c6134e8565b5b8235905067ffffffffffffffff81111561352a576135296134ed565b5b602083019150836001820283011115613546576135456134f2565b5b9250929050565b600080602083850312156135645761356361323d565b5b600083013567ffffffffffffffff81111561358257613581613242565b5b61358e858286016134f7565b92509250509250929050565b6000806000606084860312156135b3576135b261323d565b5b60006135c186828701613493565b93505060206135d286828701613493565b92505060406135e3868287016133de565b9150509250925092565b600080fd5b7f4e487b7100000000000000000000000000000000000000000000000000000000600052604160045260246000fd5b61362a82613351565b810181811067ffffffffffffffff82111715613649576136486135f2565b5b80604052505050565b600061365c613233565b90506136688282613621565b919050565b600067ffffffffffffffff821115613688576136876135f2565b5b61369182613351565b9050602081019050919050565b82818337600083830152505050565b60006136c06136bb8461366d565b613652565b9050828152602081018484840111156136dc576136db6135ed565b5b6136e784828561369e565b509392505050565b600082601f830112613704576137036134e8565b5b81356137148482602086016136ad565b91505092915050565b6000602082840312156137335761373261323d565b5b600082013567ffffffffffffffff81111561375157613750613242565b5b61375d848285016136ef565b91505092915050565b60006020828403121561377c5761377b61323d565b5b600061378a84828501613493565b91505092915050565b61379c816133bd565b82525050565b60006020820190506137b76000830184613793565b92915050565b60006137c882613420565b9050919050565b6137d8816137bd565b82525050565b60006020820190506137f360008301846137cf565b92915050565b613802816132cc565b811461380d57600080fd5b50565b60008135905061381f816137f9565b92915050565b6000806040838503121561383c5761383b61323d565b5b600061384a85828601613493565b925050602061385b85828601613810565b9150509250929050565b600067ffffffffffffffff8211156138805761387f6135f2565b5b61388982613351565b9050602081019050919050565b60006138a96138a484613865565b613652565b9050828152602081018484840111156138c5576138c46135ed565b5b6138d084828561369e565b509392505050565b600082601f8301126138ed576138ec6134e8565b5b81356138fd848260208601613896565b91505092915050565b600080600080608085870312156139205761391f61323d565b5b600061392e87828801613493565b945050602061393f87828801613493565b9350506040613950878288016133de565b925050606085013567ffffffffffffffff81111561397157613970613242565b5b61397d878288016138d8565b91505092959194509250565b600080600080604085870312156139a3576139a261323d565b5b600085013567ffffffffffffffff8111156139c1576139c0613242565b5b6139cd878288016134f7565b9450945050602085013567ffffffffffffffff8111156139f0576139ef613242565b5b6139fc878288016134f7565b925092505092959194509250565b60008060408385031215613a2157613a2061323d565b5b6000613a2f85828601613493565b9250506020613a4085828601613493565b9150509250929050565b600081519050919050565b600082825260208201905092915050565b6000819050602082019050919050565b600082825260208201905092915050565b6000613a9282613302565b613a9c8185613a76565b9350613aac81856020860161331e565b613ab581613351565b840191505092915050565b6000613acc8383613a87565b905092915050565b6000602082019050919050565b6000613aec82613a4a565b613af68185613a55565b935083602082028501613b0885613a66565b8060005b85811015613b445784840389528151613b258582613ac0565b9450613b3083613ad4565b925060208a01995050600181019050613b0c565b50829750879550505050505092915050565b60006020820190508181036000830152613b708184613ae1565b905092915050565b7f4e487b7100000000000000000000000000000000000000000000000000000000600052602260045260246000fd5b60006002820490506001821680613bbf57607f821691505b60208210811415613bd357613bd2613b78565b5b50919050565b7f4552433732313a20617070726f76616c20746f2063757272656e74206f776e6560008201527f7200000000000000000000000000000000000000000000000000000000000000602082015250565b6000613c3560218361330d565b9150613c4082613bd9565b604082019050919050565b60006020820190508181036000830152613c6481613c28565b9050919050565b7f4552433732313a20617070726f76652063616c6c6572206973206e6f7420746f60008201527f6b656e206f776e6572206e6f7220617070726f76656420666f7220616c6c0000602082015250565b6000613cc7603e8361330d565b9150613cd282613c6b565b604082019050919050565b60006020820190508181036000830152613cf681613cba565b9050919050565b600081905092915050565b6000613d148385613cfd565b9350613d2183858461369e565b82840190509392505050565b6000613d3a828486613d08565b91508190509392505050565b7f4552433732313a2063616c6c6572206973206e6f7420746f6b656e206f776e6560008201527f72206e6f7220617070726f766564000000000000000000000000000000000000602082015250565b6000613da2602e8361330d565b9150613dad82613d46565b604082019050919050565b60006020820190508181036000830152613dd181613d95565b9050919050565b600081905092915050565b50565b6000613df3600083613dd8565b9150613dfe82613de3565b600082019050919050565b6000613e1482613de6565b9150819050919050565b7f4661696c656420746f207769746864726177204d617469630000000000000000600082015250565b6000613e5460188361330d565b9150613e5f82613e1e565b602082019050919050565b60006020820190508181036000830152613e8381613e47565b9050919050565b7f4552433732313a20696e76616c696420746f6b656e2049440000000000000000600082015250565b6000613ec060188361330d565b9150613ecb82613e8a565b602082019050919050565b60006020820190508181036000830152613eef81613eb3565b9050919050565b7f4552433732313a2061646472657373207a65726f206973206e6f74206120766160008201527f6c6964206f776e65720000000000000000000000000000000000000000000000602082015250565b6000613f5260298361330d565b9150613f5d82613ef6565b604082019050919050565b60006020820190508181036000830152613f8181613f45565b9050919050565b6000613f9382613302565b613f9d8185613cfd565b9350613fad81856020860161331e565b80840191505092915050565b6000613fc58285613f88565b9150613fd18284613f88565b91508190509392505050565b6000613fe9838561330d565b9350613ff683858461369e565b613fff83613351565b840190509392505050565b60006020820190508181036000830152614025818486613fdd565b90509392505050565b7f4e6f7420656e6f756768204d6174696320706169640000000000000000000000600082015250565b600061406460158361330d565b915061406f8261402e565b602082019050919050565b6000602082019050818103600083015261409381614057565b9050919050565b7f2e00000000000000000000000000000000000000000000000000000000000000600082015250565b60006140d0600183613cfd565b91506140db8261409a565b600182019050919050565b60008190508160005260206000209050919050565b6000815461410881613ba7565b6141128186613cfd565b9450600182166000811461412d576001811461413e57614171565b60ff19831686528186019350614171565b614147856140e6565b60005b838110156141695781548189015260018201915060208101905061414a565b838801955050505b50505092915050565b6000614187828587613d08565b9150614192826140c3565b915061419e82846140fb565b9150819050949350505050565b60006141b782866140fb565b91506141c38285613f88565b91506141cf82846140fb565b9150819050949350505050565b7f7b226e616d65223a202200000000000000000000000000000000000000000000600082015250565b6000614212600a83613cfd565b915061421d826141dc565b600a82019050919050565b7f222c20226465736372697074696f6e223a20224120646f6d61696e206f6e207460008201527f6865202e74656368204e616d652073657276696365222c2022696d616765223a60208201527f2022646174613a696d6167652f7376672b786d6c3b6261736536342c00000000604082015250565b60006142aa605c83613cfd565b91506142b582614228565b605c82019050919050565b7f222c226c656e677468223a220000000000000000000000000000000000000000600082015250565b60006142f6600c83613cfd565b9150614301826142c0565b600c82019050919050565b7f227d000000000000000000000000000000000000000000000000000000000000600082015250565b6000614342600283613cfd565b915061434d8261430c565b600282019050919050565b600061436382614205565b915061436f8286613f88565b915061437a8261429d565b91506143868285613f88565b9150614391826142e9565b915061439d8284613f88565b91506143a882614335565b9150819050949350505050565b7f646174613a6170706c69636174696f6e2f6a736f6e3b6261736536342c000000600082015250565b60006143eb601d83613cfd565b91506143f6826143b5565b601d82019050919050565b600061440c826143de565b91506144188284613f88565b915081905092915050565b7f4e487b7100000000000000000000000000000000000000000000000000000000600052603260045260246000fd5b7f4e487b7100000000000000000000000000000000000000000000000000000000600052601160045260246000fd5b600061448c826133bd565b91507fffffffffffffffffffffffffffffffffffffffffffffffffffffffffffffffff8214156144bf576144be614452565b5b600182019050919050565b600060408201905081810360008301526144e48185613362565b905081810360208301526144f88184613362565b90509392505050565b7f4552433732313a207472616e736665722066726f6d20696e636f72726563742060008201527f6f776e6572000000000000000000000000000000000000000000000000000000602082015250565b600061455d60258361330d565b915061456882614501565b604082019050919050565b6000602082019050818103600083015261458c81614550565b9050919050565b7f4552433732313a207472616e7366657220746f20746865207a65726f2061646460008201527f7265737300000000000000000000000000000000000000000000000000000000602082015250565b60006145ef60248361330d565b91506145fa82614593565b604082019050919050565b6000602082019050818103600083015261461e816145e2565b9050919050565b6000614630826133bd565b915061463b836133bd565b92508282101561464e5761464d614452565b5b828203905092915050565b6000614664826133bd565b915061466f836133bd565b9250827fffffffffffffffffffffffffffffffffffffffffffffffffffffffffffffffff038211156146a4576146a3614452565b5b828201905092915050565b7f4552433732313a20617070726f766520746f2063616c6c657200000000000000600082015250565b60006146e560198361330d565b91506146f0826146af565b602082019050919050565b60006020820190508181036000830152614714816146d8565b9050919050565b7f4552433732313a207472616e7366657220746f206e6f6e20455243373231526560008201527f63656976657220696d706c656d656e7465720000000000000000000000000000602082015250565b600061477760328361330d565b91506147828261471b565b604082019050919050565b600060208201905081810360008301526147a68161476a565b9050919050565b600060608201905081810360008301526147c78186613362565b90506147d66020830185613452565b81810360408301526147e88184613362565b9050949350505050565b7f4e487b7100000000000000000000000000000000000000000000000000000000600052601260045260246000fd5b600061482c826133bd565b9150614837836133bd565b925082614847576148466147f2565b5b828204905092915050565b600061485d826133bd565b9150614868836133bd565b925082614878576148776147f2565b5b828206905092915050565b6000608082019050818103600083015261489d8187613362565b905081810360208301526148b18186613362565b905081810360408301526148c58185613362565b90506148d46060830184613793565b95945050505050565b60006148e8826133bd565b91506148f3836133bd565b9250817fffffffffffffffffffffffffffffffffffffffffffffffffffffffffffffffff048311821515161561492c5761492b614452565b5b828202905092915050565b7f45524337323155524953746f726167653a2055524920736574206f66206e6f6e60008201527f6578697374656e7420746f6b656e000000000000000000000000000000000000602082015250565b6000614993602e8361330d565b915061499e82614937565b604082019050919050565b600060208201905081810360008301526149c281614986565b9050919050565b600060608201905081810360008301526149e38186613362565b90506149f26020830185613793565b8181036040830152614a048184613362565b9050949350505050565b600081519050919050565b600082825260208201905092915050565b6000614a3582614a0e565b614a3f8185614a19565b9350614a4f81856020860161331e565b614a5881613351565b840191505092915050565b6000608082019050614a786000830187613452565b614a856020830186613452565b614a926040830185613793565b8181036060830152614aa48184614a2a565b905095945050505050565b600081519050614abe81613273565b92915050565b600060208284031215614ada57614ad961323d565b5b6000614ae884828501614aaf565b91505092915050565b7f4552433732313a206d696e7420746f20746865207a65726f2061646472657373600082015250565b6000614b2760208361330d565b9150614b3282614af1565b602082019050919050565b60006020820190508181036000830152614b5681614b1a565b9050919050565b7f4552433732313a20746f6b656e20616c7265616479206d696e74656400000000600082015250565b6000614b93601c8361330d565b9150614b9e82614b5d565b602082019050919050565b60006020820190508181036000830152614bc281614b86565b905091905056fe25732068617320726567697374657265642074686520646f6d61696e206e616d652025735265676973746572696e672025732e2573206f6e2074686520636f6e7472616374207769746820746f6b656e49442025644142434445464748494a4b4c4d4e4f505152535455565758595a6162636465666768696a6b6c6d6e6f707172737475767778797a303132333435363738392b2fa264697066735822122070fc06ede0e3f0b3023554100293c8c0fd0d52e978470d7a30919f6eac23c1e964736f6c634300080900333c73766720786d6c6e733d22687474703a2f2f7777772e77332e6f72672f323030302f737667222077696474683d2232373022206865696768743d22323730222066696c6c3d226e6f6e65223e3c706174682066696c6c3d2275726c282342292220643d224d302030683237307632373048307a222f3e3c646566733e3c66696c7465722069643d22412220636f6c6f722d696e746572706f6c6174696f6e2d66696c746572733d2273524742222066696c746572556e6974733d227573657253706163654f6e55736522206865696768743d22323730222077696474683d22323730223e3c666544726f70536861646f772064783d2230222064793d22312220737464446576696174696f6e3d22322220666c6f6f642d6f7061636974793d222e323235222077696474683d223230302522206865696768743d2232303025222f3e3c2f66696c7465723e3c2f646566733e3c7061746820643d224d37322e3836332034322e393439632d2e3636382d2e3338372d312e3432362d2e35392d322e3139372d2e3539732d312e3532392e3230342d322e3139372e35396c2d31302e30383120362e3033322d362e383520332e3933342d31302e30383120362e303332632d2e3636382e3338372d312e3432362e35392d322e3139372e3539732d312e3532392d2e3230342d322e3139372d2e35396c2d382e3031332d342e37323161342e353220342e35322030203020312d312e3538392d312e363136632d2e3338342d2e3636352d2e3539342d312e3431382d2e3630382d322e313837762d392e3331632d2e3031332d2e3737352e3138352d312e3533382e3537322d322e32303861342e323520342e323520302030203120312e3632352d312e3539356c372e3838342d342e3539632e3636382d2e33383720312e3432362d2e353920322e3139372d2e353973312e3532392e32303420322e3139372e35396c372e38383420342e353961342e353220342e353220302030203120312e35383920312e363136632e3338342e3636352e35393420312e3431382e36303820322e31383776362e3033326c362e38352d342e303635762d362e303332632e3031332d2e3737352d2e3138352d312e3533382d2e3537322d322e32303861342e323520342e32352030203020302d312e3632352d312e3539354c34312e3435362032342e3539632d2e3636382d2e3338372d312e3432362d2e35392d322e3139372d2e3539732d312e3532392e3230342d322e3139372e35396c2d31342e38363420382e36353561342e323520342e32352030203020302d312e36323520312e353935632d2e3338372e36372d2e35383520312e3433342d2e35373220322e3230387631372e343431632d2e3031332e3737352e31383520312e3533382e35373220322e32303861342e323520342e323520302030203020312e36323520312e3539356c31342e38363420382e363535632e3636382e33383720312e3432362e353920322e3139372e353973312e3532392d2e32303420322e3139372d2e35396c31302e3038312d352e39303120362e38352d342e3036352031302e3038312d352e393031632e3636382d2e33383720312e3432362d2e353920322e3139372d2e353973312e3532392e32303420322e3139372e35396c372e38383420342e353961342e353220342e353220302030203120312e35383920312e363136632e3338342e3636352e35393420312e3431382e36303820322e31383776392e333131632e3031332e3737352d2e31383520312e3533382d2e35373220322e32303861342e323520342e32352030203020312d312e36323520312e3539356c2d372e38383420342e373231632d2e3636382e3338372d312e3432362e35392d322e3139372e3539732d312e3532392d2e3230342d322e3139372d2e35396c2d372e3838342d342e353961342e353220342e35322030203020312d312e3538392d312e363136632d2e3338352d2e3636352d2e3539342d312e3431382d2e3630382d322e313837762d362e3033326c2d362e383520342e30363576362e303332632d2e3031332e3737352e31383520312e3533382e35373220322e32303861342e323520342e323520302030203020312e36323520312e3539356c31342e38363420382e363535632e3636382e33383720312e3432362e353920322e3139372e353973312e3532392d2e32303420322e3139372d2e35396c31342e3836342d382e363535632e3635372d2e33393420312e3230342d2e393520312e3538392d312e363136732e3539342d312e3431382e3630392d322e3138375635352e353338632e3031332d2e3737352d2e3138352d312e3533382d2e3537322d322e32303861342e323520342e32352030203020302d312e3632352d312e3539356c2d31342e3939332d382e3738367a222066696c6c3d2223666666222f3e3c646566733e3c6c696e6561724772616469656e742069643d2242222078313d2230222079313d2230222078323d22323730222079323d2232373022206772616469656e74556e6974733d227573657253706163654f6e557365223e3c73746f702073746f702d636f6c6f723d2223636235656565222f3e3c73746f70206f66667365743d2231222073746f702d636f6c6f723d2223306364376534222073746f702d6f7061636974793d222e3939222f3e3c2f6c696e6561724772616469656e743e3c2f646566733e3c7465787420783d2233322e352220793d223233312220666f6e742d73697a653d223237222066696c6c3d2223666666222066696c7465723d2275726c282341292220666f6e742d66616d696c793d22506c7573204a616b617274612053616e732c44656a6156752053616e732c4e6f746f20436f6c6f7220456d6f6a692c4170706c6520436f6c6f7220456d6f6a692c73616e732d73657269662220666f6e742d7765696768743d22626f6c64223e",
  "linkReferences": {},
  "deployedLinkReferences": {}
}